:020000040800F2
:1000000000500020B5030008FB030008FD030008B2
:10001000FF030008010400080304000800000000BA
:1000200000000000000000000000000005040008BF
:100030000704000800000000090400080B04000881
:100040000F04000811040008130400081504000838
:1000500017040008190400081B0400081D04000808
:100060001F040008210400082304000825040008D8
:1000700027040008290400082B0400082D040008A8
:100080002F04000831040008330400083504000878
:1000900037040008390400083B0400083D04000848
:1000A0003F04000841040008430400084504000818
:1000B00047040008490400084B0400084D040008E8
:1000C0004F040008510400085304000855040008B8
:1000D00057040008590400085B0400085D04000888
:1000E0005F040008610400086304000810B5054CB3
:1000F000237833B9044B13B10448AFF300800123D4
:10010000237010BD68000020000000006C3C000857
:10011000084B10B51BB108490848AFF300800848E8
:10012000036803B910BD074B002BFBD0BDE810409E
:10013000184700BF000000006C0000206C3C000865
:100140006800002000000000154B002B08BF134B77
:100150009D46A3F5803A00218B460F461348144A6A
:10016000121A00F04AFA0F4B002B00D098470E4BA2
:10017000002B00D098470020002104000D000D48FE
:10018000002802D00C48AFF3008000F005FA2000F0
:10019000290000F013F800F0EBF900BF00000800A0
:1001A0000050002000000000000000006800002057
:1001B0008400002000000000000000002DE9F04F46
:1001C0006E496F480B686F4C6F4A43F080730B6049
:1001D000046013686D4943F0010313608B696C4A36
:1001E00043F008034FF480508B6110615368B3B043
:1001F00023F4702343F44033536012A880226549EE
:10020000DFF8ACB100F0EEF96FF0010C0DF1480E23
:10021000614BDEF800A0C3F800C04FEA9A504FEAE5
:10022000C00058444FEA8A214FEA511190E8180063
:10023000C1FB0324584B00941B68584D0C93564B3C
:10024000C3F800C04FEA1A600C2100FB01504FEACE
:100250000A214FEA511190E83800C1FB0324C1FB89
:1002600004254D4B01951B684D4E0D934A4BC3F829
:1002700000C04FEA9A604FEA001030444FEA8A11FA
:100280004FEAD10190E87800C1FB0324C1FB0425AB
:10029000C1FB0526404B02961B68424F0E933E4B16
:1002A000C3F800C04FEADA60142100FB01704FEA86
:1002B0004A114FEA910190E87801C1FB0324C1FB88
:1002C0000425C1FB0526C1FB0628334BCDF80C8065
:1002D0001B68354F0F93304BC3F800C04FEA1A70BC
:1002E000182100FB01704FEA0A114FEA510190E812
:1002F0007803C1FB0324C1FB0425C1FB0526C1FB18
:100300000628C1FB0829244BCDF810901B68274F05
:100310001093214BC3F800C04FEA1A701C2100FB58
:1003200001704FEA0A114FEA510190E87807C1FBCA
:100330000324C1FB0425C1FB0526C1FB0628C1FB24
:100340000829C1FB092A144BCDF814A01B68DEF85C
:1003500004001193002332AA02EB830151F8C82C48
:100360000133121A062B41F8B02CF4D10EF1080E0D
:1003700032AB73457FF44CAF48E700BFFCED00E0C3
:10038000B01F00E055CEACC5001000E000100240E8
:10039000000C014024060008041000E0E4290008D5
:1003A00064380008E4350008A42600082428000862
:1003B000A40600080649074A074B9A42BEBF51F8F7
:1003C000040B42F8040BF8E7044880470448004750
:1003D000783C000800000020680000206D04000840
:1003E000490100081F49204A002301E041F8043B6D
:1003F0009142FBD3FFF7E2FEFEE7FEE7FEE7FEE7F2
:10040000FEE7FEE7FEE7FEE7FEE7FEE7FEE7FEE7C4
:10041000FEE7FEE7FEE7FEE7FEE7FEE7FEE7FEE7B4
:10042000FEE7FEE7FEE7FEE7FEE7FEE7FEE7FEE7A4
:10043000FEE7FEE7FEE7FEE7FEE7FEE7FEE7FEE794
:10044000FEE7FEE7FEE7FEE7FEE7FEE7FEE7FEE784
:10045000FEE7FEE7FEE7FEE7FEE7FEE7FEE7FEE774
:10046000FEE7FEE7680000208400002030B43C4B2B
:100470003C49186882B040F0010018605D680020B7
:100480002940596019684FF41F0421F0847121F448
:100490008031196019681A4621F480211960596861
:1004A00021F4FE0159609C6000900190196841F4AC
:1004B0008031196003E0009BB3F5A06F09D0136889
:1004C00003F400330193009B01330093019B002B45
:1004D000F1D0234B1B6813F4003318BF01230193A1
:1004E000019B012B06D0204B4FF000629A6002B0B6
:1004F00030BC70471D4A1A4B1068194640F0100076
:100500001060106820F003001060106840F00200D6
:1005100010605A685A605A685A605A6842F4806299
:100520005A605A6822F47C125A605A6842F4E812FF
:100530005A601A6842F080721A600B68084A9B0180
:10054000FBD51146536823F003035360536843F00F
:10055000020353604B6803F00C03082BFAD1C2E787
:10056000001002400000FFF800ED00E00020024013
:1005700008B5074B044613B10021AFF30080054BCB
:100580001868836A03B19847204600F03EF800BF20
:1005900000000000683C00080E4B70B51E460E4C73
:1005A0000025E41AA410A54204D056F82530984737
:1005B0000135F8E700F02AF8084B094C1E46E41A0A
:1005C000A4100025A54204D056F8253098470135DF
:1005D000F8E770BD6000002060000020600000208F
:1005E0006400002010B5431E0A44914204D011F863
:1005F000014B03F8014FF8E710BD03460244934254
:1006000002D003F8011BFAE77047FEE7F8B500BF18
:10061000F8BC08BC9E467047F8B500BFF8BC08BCE3
:100620009E4670470000000000000000555555151B
:100630000000002000000020CC3C412DAAAAAA2ADC
:10064000D0F56C370000004000000040555555556E
:10065000D0F56C3700000060CC3C412DAAAAAA6AF4
:100660000000002000000080000000005555559556
:10067000000000E0000000A034C3BED2AAAAAAAACB
:10068000300A93C8000000C0000000C0555555D581
:10069000300A93C8000000E034C3BED2AAAAAAEA76
:1006A000000000E025F9900C0500000023DA900C12
:1006B000D9876400209C900CB40EC9001D3F900C9B
:1006C0009F932D011AC38F0CA315920118288F0C2C
:1006D000C693F601196E8E0C110D5B021F958D0CE1
:1006E0008C80BF022C9D8C0C3FED230342868B0C2B
:1006F0003352880364508A0C6FAEEC0395FB880C70
:10070000FD005104D887870CE448B50430F5850C0A
:100710002D851905A343840CE1B47D053373820C48
:1007200008D7E105E683800CACEA4506BF757E0C70
:10073000D5EEA906C5487C0C8EE20D07FCFC790CB1
:10074000DEC471076A92770CD094D5071609750C30
:100750006E5139080561720CC1F99C083E9A6F0C04
:10076000D38C0009C7B46C0CAF096409A9B0690C3B
:10077000606FC709EA8D660CEFBC2A0A924C630CC5
:1007800069F18D0AAAEC5F0CD70BF10A386E5C0C8C
:10079000470B540B47D1580CC3EEB60BDF15550C65
:1007A00057B5190C093C510C105E7C0CCF434D0C15
:1007B000FBE7DE0C3B2D490C2352410D56F8440C4F
:1007C000979BA30D2BA5400C64C3050EC4333C0CB2
:1007D00097C8670E2DA4370C3FAAC90E72F6320CCB
:1007E0006B672B0F9C2A2E0C28FF8C0FB940290C0D
:1007F0008770EE0FD438240C97BA4F10FA121F0CE2
:1008000068DCB01038CF190C0AD511119A6D140C90
:100810008DA372112EEE0E0C0447D3110151090C59
:100820007FBE33122196030C110994129CBDFD0B5F
:10083000CC25F41282C7F70BC3135413E0B3F10BAA
:1008400009D2B313C582EB0BB25F13144134E50B2D
:10085000D1BB721463C8DE0B7DE5D1143B3FD80BCE
:10086000CADB3015DA98D10BCE9D8F154FD5CA0B48
:100870009E2AEE15ACF4C30B52814C1601F7BC0B4B
:1008800001A1AA165FDCB50BC3880817D9A4AE0B6B
:10089000B03766177F50A70BE0ACC31765DF9F0B1F
:1008A0006EE720189C51980B72E67D1837A7900BC5
:1008B00009A9DA1848E0880B4C2E3719E4FC800BA4
:1008C000587593191EFD780B487DEF1908E1700BE0
:1008D0003B454B1AB8A8680B4CCCA61A4254600B87
:1008E0009B11021BBAE3570B47145D1B34574F0B88
:1008F0006ED3B71BC7AE460B314E121C87EA3D0BB9
:10090000B0836C1C8A0A350B0E73C61CE70E2C0BC9
:100910006B1B201DB2F7220BEC7B791D03C5190B55
:10092000B293D21DF076100BE4612B1E900D070BD5
:10093000A4E5831EFB88FD0A1A1EDC1E47E9F30AA4
:100940006B0A341F8D2EEA0ABEA98B1FE558E00AF8
:100950003BFBE21F6768D60A0BFE39202B5DCC0AF1
:1009600057B190204B37C20A4A14E720DEF6B70A87
:100970000D263D21009CAD0ACDE59221C826A30A93
:10098000B552E8215197980AF46B3D22B6ED8D0AD5
:10099000B83092220F2A830A2EA0E622794C780AD8
:1009A00087B93A230D556D0AF37B8E23E643620A1D
:1009B000A4E6E1232119570ACCF83424D9D44B0AF0
:1009C0009EB187242877400A4D10DA242C00350A7E
:1009D0000E142C250170290A18BC7D25C3C61D0ADA
:1009E000A107CF258F04120ADFF51F268229060AE8
:1009F0000C867026BA35FA0960B7C0265329EE096D
:100A0000168910276B04E20969FA5F2721C7D50907
:100A1000940AAF279371C909D5B8FD27DF03BD0933
:100A20006A044C28237EB00991EC992880E0A30940
:100A30008A70E728122B9709968F3429FC5D8A0962
:100A4000F64881295A797D09EE9BCD294F7D7009A1
:100A5000C187192AF9696309B30B652A783F5609DA
:100A60000A27B02AEEFD48090ED9FA2A7BA53B09D0
:100A70000521452B40362E0938FE8E2B5FB020090C
:100A8000F26FD82BF71313097C75212C2C61050903
:100A9000230E6A2C1E98F7083439B22CF1B8E908F5
:100AA000FCF5F92CC5C3DB08CB43412DBEB8CD08FE
:100AB000F121882DFE97BF08BE8FCE2DA961B10808
:100AC000858C142EE015A30899175A2EC8B49408E3
:100AD0004F309F2E833E8608FDD5E32E36B3770830
:100AE000F807282F0513690898C56B2F135E5A085D
:100AF000370EAF2F85944B082FE1F12F7FB63C08BE
:100B0000DA3D343026C42D08952376309FBD1E086B
:100B1000BC91B7300FA30F08B087F8309B74000862
:100B2000CF0439316932F1077B0879319EDCE10766
:100B30001492B8316073D20700A1F731D6F6C2071C
:100B4000A13436322467B3075E4C743273C4A307F2
:100B50009EE7B132E80E9407C705EF32AA46840734
:100B600045A62B33E06B740780C86733B17E6407FA
:100B7000E56BA333457F5407E18FDE33C26D440735
:100B8000E1331934524A3407555753341A152407A0
:100B9000AEF98C3444CE13075C1AC634F8750307DB
:100BA000D4B8FE345D0CF3068AD436359D91E20646
:100BB000F26C6E35E005D2068581A5354F69C10618
:100BC000BA11DC3513BCB0060A1D123654FE9F065E
:100BD000F0A247363E308F06E8A27C36F7517E06FB
:100BE0006F1CB136AB636D06040FE53684655C0699
:100BF000277A1837AA574B06585D4B37493A3A06B9
:100C00001AB87D378A0D2906F289AF3798D11706B1
:100C100063D2E0379D860606F5901138C42CF505A1
:100C20002FC5413838C4E3059A6E7138244DD2057A
:100C3000C08CA038B2C7C0052E1FCF380F34AF0507
:100C40007025FD3865929D05169F2A39E0E28B05D7
:100C5000AD8B5739AC257A05C9EA8339F45A680552
:100C6000FBBBAF39E4825605D7FEDA39A89D4405AF
:100C7000F2B2053A6DAB3205E4D72F3A5FAC2005EE
:100C8000436D593AA9A00E05AB72823A7A88FC04EA
:100C9000B4E7AA3AFC63EA04FCCBD23A5E33D80448
:100CA000201FFA3ACCF6C504BFE0203B72AEB30475
:100CB0007910473B7F5AA104F0AD6C3B1FFB8E04BB
:100CC000C8B8913B7F907C04A530B63BCE1A6A042D
:100CD0002C15DA3B389A57040666FD3BEB0E4504AB
:100CE000DC22203C16793204574B423CE5D81F04E5
:100CF00023DF633C872E0D04EDDD843C2A7AFA0362
:100D00006547A53CFCBBE703391BC53C2BF4D4036A
:100D10001C59E43CE622C203C100033D5B48AF031B
:100D2000DB11213DB8649C03218C3E3D2C78890366
:100D30004A6F5B3DE78276030EBB773D1685630302
:100D4000286F933DE87E5003538BAE3D8D703D037D
:100D50004D0FC93D335A2A03D4FAE23D0A3C17032A
:100D6000A84DFC3D411604038B07153E06E9F00231
:100D700040282D3E8AB4DD028AAF443EFC78CA0288
:100D8000319D5B3E8A36B702FBF0713E66EDA302F1
:100D9000B2AA873EBD9D90021FCA9C3EC0477D02FD
:100DA0000F4FB13E9FEB69024F39C53E8A8956020B
:100DB000AE88D83EAF214302FC3CEB3E40B42F024C
:100DC0000B56FD3E6B411C02AFD30E3F61C90802BA
:100DD000BCB51F3F534CF50109FC2F3F70CAE10120
:100DE0006DA63F3FE743CE01C2B44E3FEBB8BA0118
:100DF000E3265D3FA929A701ABFC6A3F5496930106
:100E0000FA35783F1BFF7F01AED2843F2E646C0120
:100E1000A8D2903FBFC55801CB359C3FFC2345016C
:100E2000FAFBA63F187F31011B25B13F42D71D01B8
:100E300014B1BA3FAA2C0A01CF9FC33F817FF600AD
:100E400035F1CB3FF9CFE20032A5D33F411ECF00B1
:100E5000B3BBDA3F896ABB00A534E13F04B5A70004
:100E6000FA0FE73FE0FD9300A34DEC3F4F458000B4
:100E700092EDF03F828B6C00BDEFF43FA9D058009B
:100E80001954F83FF51445009F1AFB3F975831005D
:100E90004743FD3FBE9B1D000CCEFE3F9DDE09007B
:100EA000EABAFF3F6421F6FFDF0900404364E2FF36
:100EB000EABAFF3F6AA7CEFF0CCEFE3F0CEBBAFFAB
:100EC0004743FD3F582FA7FF9F1AFB3F7F7493FFB7
:100ED0001954F83FB2BA7FFFBDEFF43F21026CFF17
:100EE00092EDF03FFD4A58FFA24DEC3F789544FF4C
:100EF000FA0FE73FC0E130FFA534E13F08301DFFA6
:100F0000B2BBDA3F808009FF31A5D33F57D3F5FE4E
:100F100035F1CB3FBF28E2FECE9FC33FE980CEFE36
:100F200013B1BA3F05DCBAFE1A25B13F423AA7FE1B
:100F3000F9FBA63FD39B93FECA359C3FE60080FE9B
:100F4000A7D2903FAD696CFEADD2843F58D658FE13
:100F5000F935783F164745FEAAFC6A3F1ABC31FEB8
:100F6000E1265D3F91351EFEC1B44E3FAEB30AFE91
:100F70006CA63F3FA036F7FD07FC2F3F96BEE3FD72
:100F8000BBB51F3FC14BD0FDADD30E3F52DEBCFD04
:100F90000A56FD3E7776A9FDFA3CEB3E621496FDBB
:100FA000AC88D83E41B882FD4D39C53E44626FFDE4
:100FB0000D4FB13E9B125CFD1DCA9C3E77C948FD9A
:100FC000AFAA873E058735FDF9F0713E774B22FDCC
:100FD0002F9D5B3EFB160FFD88AF443EC0E9FBFC36
:100FE0003D282D3EF7C3E8FC8907153ECEA5D5FC6C
:100FF000A64DFC3D748FC2FCD2FAE23D1981AFFCD4
:101000004B0FC93DEB7A9CFC518BAE3D1A7D89FCA0
:10101000256F933DD58776FC0BBB773D499B63FCE1
:10102000476F5B3DA6B750FC1E8C3E3D1BDD3DFC73
:10103000D811213DD60B2BFCBE00033D054418FC06
:101040001959E43CD78505FC361BC53C7AD1F2FB27
:101050006147A53C1C27E0FBEADD843CEB86CDFB29
:101060001FDF633C16F1BAFB534B423CC965A8FB3A
:10107000D822203C33E595FB0366FD3B826F83FB62
:101080002915DA3BE20471FBA130B63B82A55EFB79
:10109000C4B8913B8F514CFBECAD6C3B35093AFB2E
:1010A0007510473BA3CC27FBBBE0203B059C15FB01
:1010B0001C1FFA3A877703FBF8CBD23A585FF1FA54
:1010C000B0E7AA3AA253DFFAA672823A9454CDFA54
:1010D0003F6D593A5962BBFADFD72F3A1D7DA9FA05
:1010E000EEB2053A0DA597FAD2FEDA3955DA85FA4D
:1010F000F6BBAF39211D74FAC4EA83399C6D62FADC
:10110000A98B5739F2CB50FA119F2A394F383FFA41
:101110006C25FD38DDB22DFA291FCF38C93B1CFAEA
:10112000BB8CA0383DD30AFA956E71386479F9F911
:101130002AC54138692EE8F9F090113877F2D6F9CE
:101140005ED2E037B8C5C5F9ED89AF3757A8B4F915
:1011500015B87D377D9AA3F9535D4B37569C92F9AC
:10116000217A18370AAE81F9FF0EE536C3CF70F940
:101170006A1CB136AD0160F9E2A27C36EE434FF94C
:10118000EAA24736B2963EF9041D123621FA2DF92D
:10119000B411DC35646E1DF97F81A535A4F30CF91B
:1011A000ED6C6E35098AFCF884D43635BD31ECF827
:1011B000CFB8FE34E7EADBF8571AC634AFB5CBF840
:1011C000A8F98C343F92BBF84F575334BC80ABF82E
:1011D000DB33193450819BF8DB8FDE3321948BF89D
:1011E000DF6BA33357B97BF87AC8673319F16BF813
:1011F0003FA62B338E3B5CF8C105EF32DD984CF8EF
:1012000097E7B1322B093DF8584C7432A18C2DF878
:101210009B34363263231EF8F9A0F73198CD0EF8CF
:101220000E92B831668BFFF774087931F25CF0F7F3
:10123000C90439316242E1F7A987F830DB3BD2F7C4
:10124000B691B7308249C3F78E2376307C6BB4F702
:10125000D33D3430EEA1A5F728E1F12FFCEC96F751
:10126000310EAF2FCB4C88F791C56B2F7EC179F72C
:10127000F107282F394B6BF7F6D5E32E21EA5CF7FF
:1012800048309F2E589E4EF792175A2E036840F70B
:101290007E8C142E434732F7B78FCE2D3C3C24F77B
:1012A000E921882D104716F7C443412DE36708F75D
:1012B000F5F5F92CD59EFAF62D39B22C0AECECF6A0
:1012C0001C0E6A2CA24FDFF67575212CC1C9D1F610
:1012D000EA6FD82B865AC4F631FE8E2B1302B7F66E
:1012E000FD20452B89C0A9F606D9FA2A08969CF656
:1012F0000327B02AB2828FF6AB0B652AA78682F647
:10130000B987192A05A275F6E69BCD29EFD468F6B0
:10131000EE488129811F5CF68E8F3429DE814FF6DD
:101320008270E72822FC42F689EC99286E8E36F608
:1013300062044C28E0382AF6CDB8FD2796FB1DF64E
:101340008C0AAF27AED611F661FA5F2747CA05F6B9
:101350000E8910277FD6F9F558B7C02672FBEDF538
:10136000038670263E39E2F5D7F51F260090D6F5A4
:101370009807CF25D5FFCAF510BC7D25D988BFF5C4
:1013800006142C25282BB4F54410DA24E0E6A8F541
:1013900095B187241BBC9DF5C4F83424F4AA92F5BA
:1013A0009CE6E12388B387F5EB7B8E23F2D57CF5B1
:1013B0007EB93A234B1272F525A0E622B06867F594
:1013C000AF30922239D95CF5EC6B3D22016452F5C5
:1013D000AD52E821230948F5C4E59221B6C83DF590
:1013E00004263D21D6A233F54114E7209A9729F52A
:1013F0004FB190201CA71FF502FE392074D115F5BE
:1014000032FBE21FBA160CF5B5A98B1F067702F561
:10141000620A341F71F2F8F4111EDC1E1189EFF418
:101420009BE5831EFE3AE6F4DB612B1E4F08DDF4DC
:10143000A993D21D1AF1D3F4E37B791D77F5CAF491
:10144000621B201D7A15C2F40573C61C3A51B9F40B
:10145000A7836C1CCDA8B0F4284E121C471CA8F41E
:1014600065D3B71BBFAB9FF43D145D1B495797F481
:101470009211021BF91E8FF443CCA61AE30287F4E3
:1014800031454B1A1D037FF43F7DEF19B91F77F4E7
:101490004E759319CA586FF4422E371965AE67F42A
:1014A000FFA8DA189C2060F469E67D1882AF58F432
:1014B00064E72018285B51F4D6ACC317A2234AF482
:1014C000A6376617000943F4B9880817550B3CF492
:1014D000F8A0AA16B22A35F449814C1627672EF4D3
:1014E000952AEE15C6C027F4C49D8F159E3721F4AA
:1014F000C0DB3015C0CB1AF474E5D1143C7D14F474
:10150000C8BB7214214C0EF4A85F13147F3808F482
:10151000FFD1B313654202F4B9135413E069FCF32D
:10152000C225F41200AFF6F307099412D311F1F3B8
:1015300075BE33126792EBF3FA46D311C930E6F366
:1015400083A3721107EDE0F300D511112DC7DBF372
:101550005EDCB01048BFD6F38DBA4F1065D5D1F31D
:101560007D70EE0F8F09CDF31EFF8C0FD45BC8F397
:1015700061672B0F3DCCC3F335AAC90ED65ABFF312
:101580008DC8670EAB07BBF35AC3050EC6D2B6F3C0
:101590008D9BA30D32BCB2F31952410DF8C3AEF3CB
:1015A000F0E7DE0C22EAAAF3065E7C0CBA2EA7F363
:1015B0004DB5190CC991A3F3B9EEB60B5713A0F3AF
:1015C0003D0B540B6FB39CF3CD0BF10A177299F3DB
:1015D0005EF18D0A584F96F3E5BC2A0A3A4B93F315
:1015E000556FC709C36590F3A5096409FC9E8DF387
:1015F000C98C0009EBF68AF3B6F99C08976D88F35D
:1016000063513908050386F3C694D5073CB783F3C5
:10161000D4C47107428A81F383E20D071B7C7FF3F8
:10162000CBEEA906CE8C7DF3A2EA45065EBC7BF329
:10163000FED6E105D10A7AF3D6B47D05297878F390
:10164000228519056C0477F3D948B5049DAF75F36D
:10165000F2005104BF7974F365AEEC03D56273F305
:1016600029528803E26A72F335ED2303E89171F39E
:101670008280BF02E9D770F3070D5B02E73C70F38D
:10168000BB93F601E4C06FF398159201E1636FF329
:1016900095932D01DE256FF3AA0EC900DC066FF3CA
:1016A000CE876400DC066FF3FCFFFFFFDE256FF3DF
:1016B00028789BFFE1636FF34DF136FFE4C06FF3D1
:1016C000626CD2FEE73C70F35EEA6DFEE9D770F320
:1016D0003B6C09FEE89171F3F0F2A4FDE26A72F34B
:1016E000757F40FDD56273F3C212DCFCBF7974F3E1
:1016F000CEAD77FC9DAF75F3925113FC6C0477F37C
:1017000004FFAEFB297878F31DB74AFBD10A7AF3C0
:10171000D47AE6FA5EBC7BF3204B82FACE8C7DF362
:10172000F9281EFA1B7C7FF35515BAF9428A81F31A
:101730002C1156F93CB783F3731DF2F8050386F3B9
:10174000233B8EF8976D88F3316B2AF8EBF68AF31A
:1017500093AEC6F7FC9E8DF3400663F7C36590F326
:101760002E73FFF63A4B93F352F69BF6584F96F3CF
:10177000A19038F6177299F31243D5F56FB39CF325
:10178000980E72F55713A0F32AF40EF5C991A3F33E
:10179000BAF4ABF4BA2EA7F33E1149F422EAAAF345
:1017A000AA4AE6F3F8C3AEF3F1A183F332BCB2F375
:1017B000061821F3C6D2B6F3DEADBEF2AB07BBF31B
:1017C0006A645CF2D65ABFF39D3CFAF13DCCC3F398
:1017D0006A3798F1D45BC8F3C25536F18F09CDF35F
:1017E0009698D4F065D5D1F3D90073F048BFD6F3FD
:1017F0007A8F11F02DC7DBF36A45B0EF07EDE0F308
:1018000099234FEFC930E6F3F72AEEEE6792EBF338
:10181000745C8DEED311F1F3FDB82CEE00AFF6F34E
:101820008241CCEDE069FCF3F0F66BED654202F429
:1018300035DA0BED7F3808F43EECABEC214C0EF4BE
:10184000F82D4CEC3C7D14F44FA0ECEBC0CB1AF41B
:1018500030448DEB9E3721F4841A2EEBC6C027F45A
:101860003724CFEA27672EF4336270EAB22A35F4C0
:1018700063D511EA550B3CF4AF7EB3E9000943F49C
:10188000005F55E9A2234AF43E77F7E8285B51F45C
:1018900051C899E882AF58F421533CE89C2060F489
:1018A0009318DFE765AE67F48F1982E7CA586FF4C3
:1018B000F85625E7B91F77F4B5D1C8E61D037FF4C4
:1018C000A98A6CE6E30287F4B98210E6F91E8FF468
:1018D000C6BAB4E5495797F4B53359E5BFAB9FF4A1
:1018E00066EEFDE4471CA8F4BAEBA2E4CDA8B0F480
:1018F000932C48E43A51B9F4D0B1EDE37A15C2F42F
:10190000517C93E377F5CAF4F38C39E31AF1D3F4FD
:1019100096E4DFE24F08DDF4158486E2FE3AE6F451
:101920004F6C2DE21189EFF41D9ED4E171F2F8F4B1
:101930005D1A7CE1067702F5E7E123E1BA160CF5C2
:1019400096F5CBE074D115F5435674E01CA71FF54E
:10195000C6041DE09A9729F5F601C6DFD6A233F535
:10196000AA4E6FDFB6C83DF5B7EB18DF230948F57F
:10197000F4D9C2DE016452F5341A6DDE39D95CF552
:101980004CAD17DEB06867F50D94C2DD4B1272F5F1
:1019900049CF6DDDF2D57CF5D35F19DD88B387F5CE
:1019A0007A46C5DCF4AA92F50E8471DC1BBC9DF569
:1019B0005D191EDCE0E6A8F53507CBDB282BB4F576
:1019C000634E78DBD988BFF5B4EF25DBD5FFCAF5C8
:1019D000F3EBD3DA0090D6F5E94382DA3E39E2F54B
:1019E00060F830DA72FBEDF5220AE0D97FD6F9F51E
:1019F000F5798FD947CA05F6A1483FD9AED611F679
:101A0000EB76EFD896FB1DF69805A0D8E0382AF6BD
:101A10006DF550D86E8E36F62C4702D822FC42F671
:101A200097FBB3D7DE814FF6701366D7811F5CF644
:101A3000778F18D7EFD468F66B70CBD605A275F602
:101A40000BB77ED6A78682F6136432D6B2828FF6A3
:101A50004078E6D508969CF64EF49AD589C0A9F64A
:101A6000F7D84FD51302B7F6F32605D5865AC4F634
:101A7000FCDEBAD4C1C9D1F6C90171D4A24FDFF6D8
:101A80000F9027D40AECECF6858ADED3D59EFAF6C1
:101A9000DEF195D3E36708F7CDC64DD3104716F7AF
:101AA000050A06D33C3C24F736BCBED2434732F786
:101AB00010DE77D2036840F7437031D2589E4EF75C
:101AC0007C73EBD121EA5CF768E8A5D1394B6BF761
:101AD000B2CF60D17EC179F7042A1CD1CB4C88F7F4
:101AE00009F8D7D0FCEC96F7693A94D0EEA1A5F7A7
:101AF000CAF150D07C6BB4F7D21E0ED08249C3F726
:101B000027C2CBCFDB3BD2F76CDC89CF6242E1F757
:101B1000456E48CFF25CF0F7517807CF668BFFF740
:101B200032FBC6CE98CD0EF886F786CE63231EF81C
:101B3000ED6D47CEA18C2DF8015F08CE2B093DF845
:101B400060CBC9CDDD984CF8A3B38BCD8E3B5CF850
:101B500063184ECD19F16BF83AFA10CD57B97BF8EE
:101B6000BC59D4CC21948BF8813798CC50819BF808
:101B70001C945CCCBC80ABF8207021CC3F92BBF8AD
:101B800020CCE6CBAFB5CBF8ACA8ACCBE7EADBF822
:101B9000530673CBBD31ECF8A5E539CB098AFCF8C7
:101BA0002D4701CBA4F30CF9772BC9CA646E1DF93C
:101BB0000F9391CA21FA2DF97C7E5ACAB2963EF94A
:101BC00047EE23CAEE434FF9F7E2EDC9AD0160F9E4
:101BD000115DB8C9C3CF70F9195D83C90AAE81F927
:101BE00092E34EC9569C92F9FDF01AC97D9AA3F969
:101BF000DA85E7C857A8B4F9A9A2B4C8B8C5C5F929
:101C0000E74782C877F2D6F90F7650C8692EE8F90F
:101C10009E2D1FC86479F9F90C6FEEC73DD30AFAFF
:101C2000D23ABEC7C93B1CFA67918EC7DDB22DFA06
:101C300041735FC74F383FFAD3E030C7F2CB50FA59
:101C400091DA02C79C6D62FAEB60D5C6211D74FA69
:101C50005474A8C655DA85FA38157CC60DA597FACE
:101C6000064450C61D7DA9FA2A0125C65962BBFA51
:101C70000F4DFAC59454CDFA1D28D0C5A253DFFAF2
:101C8000BE92A6C5585FF1FA568D7DC5877703FBD6
:101C90004D1855C5059C15FB05342DC5A3CC27FB58
:101CA000E1E005C535093AFB421FDFC48F514CFB0B
:101CB00088EFB8C482A55EFB115293C4E20471FBA5
:101CC00039476EC4826F83FB5CCF49C433E595FB13
:101CD000D5EA25C4C965A8FBFB9902C416F1BAFB75
:101CE00025DDDFC3EB86CDFBAAB4BDC31C27E0FB1B
:101CF000DE209CC37AD1F2FB14227BC3D78505FC7E
:101D00009CB85AC3054418FCC8E43AC3D60B2BFC54
:101D1000E5A61BC31BDD3DFC40FFFCC2A6B750FC83
:101D200026EEDEC2499B63FCE073C1C2D58776FC18
:101D3000B790A4C21A7D89FCF34488C2EB7A9CFC5C
:101D4000D9906CC21981AFFCAE7451C2748FC2FCC1
:101D5000B4F036C2CEA5D5FC2D051DC2F7C3E8FCF4
:101D600059B203C2C0E9FBFC76F8EAC1FB160FFDCD
:101D7000C1D7D2C1774B22FD7750BBC1058735FD56
:101D8000D062A4C177C948FD060F8EC19B125CFDCD
:101D90004F5578C144626FFDE23563C141B882FDA1
:101DA000F2B04EC1621496FDB2C63AC17776A9FD73
:101DB000537727C152DEBCFD05C314C1C14BD0FD12
:101DC000F6A902C196BEE3FD522CF1C0A036F7FD84
:101DD000454AE0C0AEB30AFEF803D0C091351EFEFE
:101DE0009459C0C01ABC31FE3F4BB1C0164745FEE6
:101DF0001ED9A2C058D658FE560395C0AD696CFED8
:101E000007CA87C0E60080FE532D7BC0D39B93FE9C
:101E1000592D6FC0423AA7FE36CA63C005DCBAFE30
:101E2000070459C0E980CEFEE6DA4EC0BF28E2FEC4
:101E3000ED4E45C057D3F5FE32603CC0808009FFAF
:101E4000CC0E34C008301DFFCF5A2CC0C0E130FF8B
:101E50004E4425C0789544FF5CCB1EC0FD4A58FF18
:101E600007F018C021026CFF5EB213C0B2BA7FFF48
:101E70006F120FC07F7493FF44100BC0582FA7FF41
:101E8000E8AB07C00CEBBAFF62E504C06AA7CEFF5F
:101E9000BABC02C04364E2FFF53101C06421F6FF21
:101EA000174500C09DDE090022F6FFBFBE9B1D0046
:101EB000174500C097583100F53101C0F5144500B1
:101EC000BABC02C0A9D0580062E504C0828B6C0085
:101ED000E8AB07C04F45800044100BC0E0FD930005
:101EE0006F120FC004B5A7005FB213C0896ABB00B0
:101EF00007F018C0411ECF005CCB1EC0F9CFE20036
:101F00004F4425C0817FF600D05A2CC0AA2C0A016C
:101F1000CC0E34C042D71D0133603CC0187F310164
:101F2000EE4E45C0FC234501E7DA4EC0BFC558015F
:101F3000080459C02E646C0137CA63C01BFF7F01BF
:101F40005A2D6FC054969301542D7BC0A929A70127
:101F500008CA87C0EBB8BA01570395C0E743CE0162
:101F600020D9A2C070CAE101404BB1C0534CF50169
:101F70009559C0C061C90802FA03D0C06B411C0268
:101F8000464AE0C040B42F02542CF1C0AF214302B6
:101F9000F7A902C18A89560207C314C19FEB6902DF
:101FA000557727C1C0477D02B4C63AC1BD9D900296
:101FB000F4B04EC166EDA302E43563C18A36B702C0
:101FC000525578C1FC78CA02080F8EC18AB4DD026E
:101FD000D262A4C106E9F0027950BBC141160403E4
:101FE000C4D7D2C10A3C170378F8EAC1335A2A038E
:101FF0005BB203C28D703D032F051DC2E87E500306
:10200000B6F036C216856303B07451C2E782760318
:10201000DC906CC22C788903F64488C2B8649C03B7
:10202000BA90A4C25B48AF03E373C1C2E622C20305
:1020300029EEDEC22BF4D40343FFFCC2FCBBE70352
:10204000E8A61BC32A7AFA03CBE43AC3872E0D0411
:10205000A0B85AC3E5D81F0417227BC316793204EF
:10206000E2209CC3EB0E4504AEB4BDC3389A5704BE
:1020700029DDDFC3CE1A6A04FE9902C47F907C0476
:10208000D8EA25C41FFB8E0460CF49C47F5AA1043F
:102090003D476EC472AEB304155293C4CCF6C5046A
:1020A0008CEFB8C45E33D804461FDFC4FC63EA0477
:1020B000E5E005C57A88FC0409342DC5A9A00E0504
:1020C000511855C55FAC20055B8D7DC56DAB3205E4
:1020D000C292A6C5A89D44052228D0C5E482560513
:1020E000134DFAC5F45A68052F0125C6AC257A05AB
:1020F0000B4450C6E0E28B053D157CC665929D05FC
:102100005874A8C60F34AF05F060D5C6B2C7C00575
:1021100095DA02C7244DD205D8E030C738C4E305AC
:1021200046735FC7C42CF5056C918EC79D86060665
:10213000D73ABEC798D11706116FEEC78A0D290688
:10214000A32D1FC8493A3A06147650C8AA574B0621
:10215000EC4782C884655C06AEA2B4C8AB636D066A
:10216000E085E7C8F7517E0602F11AC93E308F06B6
:1021700097E34EC954FE9F061F5D83C913BCB0068A
:10218000175DB8C94F69C106FDE2EDC9E005D20689
:102190004DEE23CA9D91E206827E5ACA5D0CF3067B
:1021A000149391CAF87503077D2BC9CA44CE13074F
:1021B000324701CB1A152407AAE539CB524A340716
:1021C000590673CBC26D4407B2A8ACCB457F540708
:1021D00026CCE6CBB17E6407267021CCE06B740779
:1021E00022945CCCAA468407873798CCE80E9407E3
:1021F000C259D4CC73C4A30740FA10CD2467B307E7
:102200006A184ECDD6F6C207A9B38BCD6073D2073C
:1022100066CBC9CD9EDCE107085F08CE6932F107C5
:10222000F36D47CE9B7400088DF786CE0FA30F0881
:1022300038FBC6CE9FBD1E08587807CF26C42D0890
:102240004B6E48CF7FB63C0873DC89CF85944B0832
:102250002EC2CBCF135E5A08D91E0ED005136908C3
:10226000D0F150D036B37708703A94D0833E8608C8
:1022700010F8D7D0C8B494080B2A1CD1E015A308D5
:10228000B9CF60D1A961B1086FE8A5D1FE97BF08A9
:102290008373EBD1BEB8CD084A7031D2C5C3DB0819
:1022A00018DE77D2F1B8E9083DBCBED21E98F70817
:1022B0000C0A06D32C610509D4C64DD3F7131309B4
:1022C000E5F195D35FB020098C8ADED340362E0924
:1022D000179027D47BA53B09D00171D4EEFD4809A6
:1022E00004DFBAD4783F5609FB2605D5F96963099E
:1022F000FED84FD54F7D700956F49AD55A797D098D
:102300004878E6D5FC5D8A091B6432D6122B970902
:1023100013B77ED680E0A3097370CBD6237EB009B5
:102320007F8F18D7DF03BD09781366D79371C9096A
:102330009FFBB3D721C7D509344702D86B04E20904
:1023400075F550D85329EE09A005A0D8BA35FA0979
:10235000F376EFD88229060AA9483FD98F04120ADA
:10236000FE798FD9C3C61D0A2A0AE0D90170290A4D
:1023700069F830DA2C00350AF14382DA2877400A0E
:10238000FBEBD3DAD9D44B0ABDEF25DB2119570A71
:102390006C4E78DBE643620A3D07CBDB0D556D0AD8
:1023A00065191EDC794C780A168471DC0F2A830AC1
:1023B0008346C5DCB6ED8D0ADC5F19DD5197980ABE
:1023C00052CF6DDDC826A30A1594C2DD009CAD0A6C
:1023D00054AD17DEDEF6B70A3D1A6DDE4B37C20A82
:1023E000FDD9C2DE2B5DCC0AC0EB18DF6768D60AC8
:1023F000B24E6FDFE558E00AFF01C6DF8D2EEA0A14
:10240000CF041DE047E9F30A4C5674E0FB88FD0A4F
:102410009FF5CBE0900D070BF0E123E1F076100B78
:10242000661A7CE103C5190B269ED4E1B2F7220B94
:10243000586C2DE2E70E2C0B1E8486E28A0A350BBF
:102440009FE4DFE287EA3D0BFC8C39E3C7AE460B25
:102450005A7C93E334574F0BD9B1EDE3BAE3570BF2
:102460009C2C48E44254600BC4EBA2E4B8A8680B6F
:102470006FEEFDE408E1700BBE3359E51EFD780BED
:10248000D0BAB4E5E4FC800BC28210E648E0880BC9
:10249000B38A6CE637A7900BBFD1C8E69C51980B66
:1024A000025725E765DF9F0B981982E77F50A70B3E
:1024B0009D18DFE7D9A4AE0B2B533CE85FDCB50BCE
:1024C0005BC899E801F7BC0B4877F7E8ACF4C30B9D
:1024D000095F55E94FD5CA0BB87EB3E9DA98D10B3D
:1024E0006CD511EA3B3FD80B3D6270EA63C8DE0B46
:1024F0004124CFEA4134E50B8D1A2EEBC582EB0B5C
:1025000039448DEBE0B3F10B59A0ECEB82C7F70B2C
:10251000022E4CEC9CBDFD0B48ECABEC2196030C61
:102520003FDA0BED0151090CFAF66BED2EEE0E0CB5
:102530008C41CCED9A6D140C07B92CEE38CF190CE8
:102540007E5C8DEEFA121F0C012BEEEED438240CBB
:10255000A3234FEFB940290C7445B0EF9C2A2E0CF1
:10256000848F11F072F6320CE30073F02DA4370C57
:10257000A098D4F0C4333C0CCC5536F12BA5400CBC
:10258000743798F156F8440CA73CFAF13B2D490CEE
:1025900074645CF2CF434D0CE8ADBEF2093C510CC3
:1025A000111821F3DF15550CFBA183F347D1580C0B
:1025B000B44AE6F3386E5C0C481149F4AAEC5F0C9F
:1025C000C4F4ABF4924C630C34F40EF5EA8D660C53
:1025D000A30E72F5A9B0690C1C43D5F5C7B46C0CF9
:1025E000AC9038F63E9A6F0C5CF69BF60561720C67
:1025F0003873FFF61609750C4B0663F76A92770C71
:102600009EAEC6F7FCFC790C3B6B2AF8C5487C0CE7
:102610002D3B8EF8BF757E0C7E1DF2F8E683800C94
:10262000361156F93373820C5F15BAF9A343840C43
:1026300003291EFA30F5850C2B4B82FAD887870CBC
:10264000DF7AE6FA95FB880C28B74AFB64508A0CBF
:102650000FFFAEFB42868B0C9C5113FC2C9D8C0C07
:10266000D8AD77FC1F958D0CCC12DCFC196E8E0C4E
:102670007F7F40FD18288F0CFAF2A4FD1AC38F0C3F
:10268000466C09FE1D3F900C69EA6DFE209C900C83
:102690006C6CD2FE23DA900C57F136FF25F9900CC2
:1026A00033789BFFABF62700C89F0000A2E2D4FA64
:1026B000B205000068F643320000000024E121006A
:1026C000B0AF65000D2939FB2E4872F8EB71702E02
:1026D000A8E27D1835A316008244BB00079A57FC78
:1026E000C3EE0AF2FD048B23CF3C412D02F3070019
:1026F000D156F400E59904FEEE8CC3EDCA593C13A3
:10270000A1D7203BFF0CF8FF55360801F6D8FEFF95
:10271000C0E542EC86FEFFFF03000040CC5CE9FF11
:1027200087DCF300F144F9019288C3ED7CA3C3EC8C
:10273000A1D7203BDD1EDEFF8B62BA00B9C4A60321
:10274000B5E60AF2EDF874DCCF3C412D5609D8FF0E
:102750007388640023F5C504A73D72F8F48C8FD10B
:10276000A7E27D185609D8FF3960FFFF5F1D2B05D2
:102770004FFAFFFF9909BCCD00000000DD1EDEFF0F
:1027800051509AFFF4D6C604D3B78D07168E8FD159
:10279000591D82E7CC5CE9FF7FBB44FFFA65A803C3
:1027A0003E11F50D04FB74DC32C3BED2FF0CF8FF02
:1027B00030A90BFF1C66FB0113733C1237A6C3EC58
:1027C0006028DFC402F30700ACC9F7FE0B27010045
:1027D000411ABD137B010000FEFFFFBF35A31600A9
:1027E0007A230CFF10BB06FE6F773C12855C3C130E
:1027F0006028DFC424E12100769D45FF483B59FC59
:102800004C19F50D14078B2332C3BED2ABF627004B
:102810008E779BFFDE0A3AFB5AC28D070D73702E2E
:102820005A1D82E794F5FEFFF6832900ECC1FFFFF5
:10283000A11BD5FA1AFFFFFFB0F6433200000000DB
:102840004809FDFF3C51260002326300EECD39FB02
:10285000EC3472F8BE72702EA7E27D187F90FBFFF9
:1028600023491D001788B700B19158FCC9D10AF25D
:102870003A068B23CD3C412D95C4FAFFACCB0F001B
:1028800045EDEF00A2BE05FEA46AC3ED415B3C131B
:102890009ED7203B95C4FAFF99E6FFFF9ECB03012C
:1028A00036FEFFFF5FC342EC000000000000004066
:1028B0007F90FBFF6305F0FFC81CF0000F3EFA019C
:1028C000556BC3EDBDA4C3EC9ED7203B4809FDFF6B
:1028D000F092E2FFE2DFB700C86BA70310D30AF261
:1028E000C5F974DCCD3C412D94F5FEFF539BD9FF17
:1028F000B8A46300B430C604983672F8428D8FD104
:10290000A7E27D186D0A01000B7CD6FF153E000082
:1029100060E42A05E70000005109BCCD000000007A
:10292000B9F60200C5AED9FFFFCD9CFF1332C60435
:1029300015CB8D07438D8FD15A1D82E7826F04001E
:10294000DEB6E2FFEA7748FF506EA703382EF50D9A
:10295000C7F974DC34C3BED26C3B05005534F0FFBC
:10296000BC1210FF5F41FA015D953C12C0A4C3EC9C
:102970006328DFC46C3B0500681900006334FCFE6B
:10298000CB010000A23CBD1301000000010000C00B
:10299000826F04009EFA0F0039E30FFFF2C105FEBB
:1029A000AC943C12445B3C136328DFC4B9F60200CC
:1029B000116D1D001F2048FF399458FCF12CF50DB6
:1029C0003C068B2334C3BED26D0A0100AE642600E0
:1029D000495B9CFF4DCF39FB69C98D07BF72702ED3
:1029E0005A1D82E757FDC1FFB0B04432AEFFFFFF72
:1029F000920146FF71D040320D1592017B22CAFE32
:102A0000603035326CEC23032D734EFE4AD22132F6
:102A1000D247B504BA06D3FD2AB906325DE94506A8
:102A20002AF057FD2EE9E3314493D5077942DDFCC6
:102A3000B567B931E6076409901063FC4C3B8731F8
:102A4000D109F10A4A6DE9FBB06B4D31CD5B7C0CCD
:102A5000666B70FBCC010C31E5C0050E8E1DF8FADB
:102A6000B507C3306EFC8C0F4F9680FAAC8872307D
:102A700013D2111117E809FA1C911A30E0059412CB
:102A8000352594F9952EBB2F465C1314D05F1FF9A2
:102A9000CC6F542F289A8F15EAA9ABF89964E62ECB
:102AA000E48408175B1539F8F41D712E5BE27D187C
:102AB000CFB3C7F7F4ADF42DF878EF19C09657F7F8
:102AC000C827712DBF0F5D1B7ACFE8F6B89FE62CA3
:102AD000506EC61C116F7BF6222B552CEF5C2B1E03
:102AE00063860FF672E0BC2B94A48B1F1326A5F50A
:102AF00027D71D2BEC0EE7208A5E3CF5C427782AE9
:102B000063663D22F03FD5F4D8EBCB292F768E2398
:102B10002ADA6FF4F03D1929570ADA24DD3C0CF467
:102B20009C396028B8EF1F266477AAF363FBA027BF
:102B300012F45F27D3984AF3C1A0DB260BE699284D
:102B4000F3AFECF2274810263A95CD293FCB90F20F
:102B5000EF103F252CD2FA2AE3F836F25D1B6824E9
:102B60006F6E212CB846DFF196888B23933C412D64
:102B700044C289F19E7AA92237105A2EB87836F1CC
:102B80005114C2210EBE6B2FEB76E5F05D79D52096
:102B9000E31B76305BC996F03FCEE31FA20079318C
:102BA0002A7C4AF03B38ED1E614474321C9B00F0D5
:102BB00058DDF11D5FC067339531B9EF57E4F11C63
:102BC000124F53349A4A74EFB374ED1B25CC36354B
:102BD000C9F031EF93B6E41A851412365D2EF2EE89
:102BE000CBD2D7196006E5362D0DB5EED2F2C61858
:102BF0003181AF37A5967AEEBD40B217BD65713809
:102C0000C9D342EE35E799161E962A3933CD0DEE1B
:102C100076117E15C6F5DA390F8BDBED46EB5E14C7
:102C20008269823A1D15ACEDEBA03C137FD7203BA7
:102C3000B0727FED295F17125127B63BA9AA55ED57
:102C40003953EF10EF41423C79C32EEDC2AAC40FB5
:102C5000BF11C53C21C30AEDD193970E96823E3D2C
:102C60002DAFE9ECD63C680DB981AE3DB88CCBEC0C
:102C700096D4360CE4FD143E6760B0EC298A030B51
:102C800047E7713E6A2E98ECF48CCE09912FC53E31
:102C90007DFA82EC9B0C9808E7C90E3FE5C770EC03
:102CA000FF386007F3AA4E3F709961EC384227065F
:102CB000D8C8843F757155EC8658ED04401BB13F70
:102CC000D5514CEC54ACB203559BD33FF73B46EC8B
:102CD000266E7702C443EC3FCD3043EC99CE3B01E6
:102CE000C010FB3FCD3043EC5BFEFFFF0100004016
:102CF000F73B46EC1C2EC4FEC410FB3FD5514CECF8
:102D0000908E88FDCC43EC3F757155EC63504DFCC3
:102D1000619BD33F709961EC32A412FB501BB13F11
:102D2000E5C770EC83BAD8F9EDC8843F7DFA82EC30
:102D3000BFC39FF80BAB4E3F6A2E98EC27F067F7A6
:102D400004CA0E3F6760B0ECD16F31F6B12FC53EBB
:102D5000B88CCBECA072FCF46CE7713E2DAFE9ECC3
:102D60003828C9F30CFE143E21C30AEDFEBF97F2CA
:102D7000E681AE3D79C32EED086968F1C6823E3D1D
:102D8000A9AA55ED1E523BF0F311C53CB0727FED80
:102D9000ADA910EF2642423C1D15ACEDC59DE8EDF6
:102DA0008C27B63B0F8BDBED0B5CC3ECBFD7203B16
:102DB00033CD0DEEB811A1EBC569823AC9D342EE0D
:102DC00090EB81EA0DF6DA39A5967AEEDA1566E926
:102DD00068962A392D0DB5EE5CBC4DE80B6671384E
:102DE0005D2EF2EE500A39E78281AF37C9F031EF3C
:102DF000622A28E6B506E5369A4A74EFA5461BE531
:102E0000DD1412369531B9EF918812E481CC363554
:102E10001C9B00F0F8180EE3714F53342A7C4AF0E3
:102E200003200EE2C2C067335BC996F02CC512E1E5
:102E3000C7447432EB76E5F0352F1CE00B01793195
:102E4000B87836F125842ADF4F1C763044C289F1E8
:102E50003FE93DDE7DBE6B2FB846DFF1008356DDD6
:102E6000A9105A2EE3F836F2167574DC083D412D90
:102E70003FCB90F25EE297DBE76E212CF3AFECF2F2
:102E8000DBECC0DAA7D2FA2AD3984AF3B3B5EFD96C
:102E9000B795CD296477AAF3285D24D98AE69928C5
:102EA000DD3C0CF497025FD894F45F272ADA6FF4C4
:102EB0006EC49FD73DF01F26F03FD5F42AC0E6D65A
:102EC000DE0ADA248A5E3CF5541234D6B9768E23B3
:102ED0001326A5F579D687D5EE663D2263860FF6D3
:102EE0002827E2D47A0FE720116F7BF6EE1D43D43A
:102EF00024A58B1F7ACFE8F651D3AAD3815D2B1E70
:102F0000C09657F7CD5E19D3E36EC61CCFB3C7F793
:102F1000D1D68ED255105D1B5B1539F8B7500BD248
:102F20009079EF19EAA9ABF8CAE08ED1F3E27D18E7
:102F3000D05F1FF9399A19D17E850817352594F984
:102F4000198FABD0C49A8F1517E809FA64D044D012
:102F5000E35C13144F9680FAF06DE5CF7E06941271
:102F60008E1DF8FA74768DCFB3D21111666B70FB9B
:102F70007FF73CCF0EFD8C0F4A6DE9FB7DFDF3CE54
:102F800086C1050E901063FCAC93B2CE6F5C7C0CD6
:102F90007942DDFC25C478CE740AF10A2AF057FD87
:102FA000D19746CE89086409BA06D3FD6C161CCEAB
:102FB000E893D5072D734EFE8546F9CD01EA450607
:102FC0007B22CAFE792DDECD7748B504920146FFFB
:102FD00077CFCACD11ED230357FDC1FF7C2FBFCDA5
:102FE000B2159201AA023E00514FBBCD5300000022
:102FF0006FFEB900902FBFCDF4EA6DFE86DD35017E
:10300000A1CFCACD9513DCFCD48CB101B72DDECD98
:103010002FB84AFB47F92C02D746F9CDA416BAF9C6
:10302000D70FA802D3161CCEBD6C2AF888BD220388
:103030004C9846CE1BF89BF671EF9C03B5C478CE36
:1030400030F60EF5B79216045194B2CE34A483F341
:103050009B948F0435FEF3CE1C3FFAF173E2070513
:103060004CF83CCF930373F0B2697F0555778DCF51
:10307000EE2DEEEEEA17F605E56EE5CF21FA6BEDE3
:10308000CCDA6B066CD144D0BBA3ECEB31A0E006EC
:103090003590ABD0D96570EA17565407689B19D1A3
:1030A0001D7BF7E8A6EAC6070DE28ED1A61D82E7D2
:1030B000324C38080D520BD2098710E64169A80836
:1030C00039D88ED242F0A2E487301709496019D36B
:1030D000B19139E3F0908409DFD4AAD312A3D4E1EB
:1030E0009E79F0098F1F43D46D5B74E0EED95A0AC4
:1030F000DA28E2D415F118DF77A1C30A3DD887D5C5
:103100009E99C2DD11C02A0B291434D6D28971DCF4
:10311000D725900B11C2E6D6AAF525DB24C3F30B05
:1031200065C69FD74910E0D99D88550C9E045FD88D
:10313000EF0BA0D82E67B50C405F24D9F61966D7DF
:103140000E50130DDAB7EFD9C76A32D6C2346F0DFD
:1031500012EFC0DAD52D05D51E07C90DA4E497DB03
:103160009291DED349B9200E6B7774DC6EC3BED268
:10317000BD3D760E638556DDCAEFA5D14987C90EE0
:10318000B0EB3DDEF34194D016891A0FA4862ADFF6
:103190001EE489CFA636690FC2311CE05FFF86CEE0
:1031A000D783B50FC6C712E1A0BB8BCDE564FF0F77
:1031B000A9220EE2A23F98CC6CCE4610AA1B0EE3C9
:1031C000EFB0ACCB67B58B104E8B12E4DC33C9CAC1
:1031D000380FCE106E491BE57CEBEDC9A4D10D1163
:1031E000362D28E6A1F91AC9D4F24A112F0D39E774
:1031F000D07E50C85C69851144BF4DE8449A8EC7A3
:10320000382CBD11CC1866E9E369D5C6CE32F2116F
:103210008BEE81EA3B0A25C6F2742412BB14A1EBA3
:103220007F967DC5E4EA5312165FC3EC8228DFC4A3
:10323000518D8012D8A0E8EDB0D849C45855AA12D3
:10324000C8AC10EF12BEBDC3883CD1123F553BF055
:1032500042EE3AC3E03CF512306C68F16B7DC1C2BE
:10326000D45016132BC397F2487E51C249733413BE
:103270006B2BC9F31D02EBC19A9F4F13D875FCF459
:10328000BA188EC197D167130D7331F670D03AC159
:1032900084057D1366F367F71A36F1C01C388F1367
:1032A00002C79FF80E55B1C091669E13C9BDD8F9EB
:1032B00029377BC08C8EAA137BA712FBC1E44EC0BA
:1032C0002CAEB313AD534DFCAC642CC00AC4B9137F
:1032D000DB9188FD3DBC13C034CFBC136831C4FE04
:1032E00041EF04C034CFBC13A6010000000000C0B1
:1032F0000AC4B913E5D13B013DEF04C02CAEB313B2
:103300007171770235BC13C08C8EAA139EAFB203C5
:10331000A0642CC091669E13CF5BED04B1E44EC057
:103320001C388F137E45270614377BC084057D1318
:10333000423C6007F654B1C097D16713DA0F980882
:10334000FD35F1C09A9F4F133090CE0950D03AC14D
:1033500049733413618D030B95188EC1D450161325
:10336000C9D7360CF501EBC1E03CF5120340680DFE
:103370001B7E51C2883CD112F996970E3B7DC1C28B
:103380005855AA12E3ADC40F0EEE3AC3518D801208
:103390005456EF10DBBDBDC3E4EA53123C62171272
:1033A00075D849C4F2742412F6A33C134228DFC432
:1033B000CE32F21149EE5E143C967DC5382CBD111B
:1033C00071147E15F40925C65C69851127EA9916E2
:1033D0009969D5C6D4F24A11A543B217F6998EC79A
:1033E000A4D10D11B1F5C6187F7E50C8380FCE108C
:1033F0009FD5D7194CF91AC967B58B105CB9E41A77
:1034000024EBEDC96CCE46107077ED1B8033C9CA32
:10341000E564FF0F09E7F11C90B0ACCBD783B50F83
:10342000FEDFF11D3F3F98CCA636690FD53AED1E61
:103430003ABB8BCD16891A0FCCD0E31FF6FE86CE91
:103440004987C90EDC7BD520B2E389CFBD3D760E1E
:10345000C216C221844194D049B9200E017DA9220F
:1034600058EFA5D11E07C90DEB8A8B23F9C2BED236
:10347000C2346F0DA31D68241A91DED30E50130DB4
:1034800026133F255A2D05D52E67B50C4E4A10261A
:103490004A6A32D69D88550CD9A2DB26771966D7A1
:1034A00024C3F30B6AFDA0276D0BA0D8D725900B82
:1034B000933B6028C40FE0D911C02A0BD73F1929CC
:1034C00023F525DB77A1C30AADEDCB29488971DC53
:1034D000EED95A0A8829782A1399C2DD9E79F00913
:1034E000D9D81D2B87F018DFF090840913E2BC2B8C
:1034F000DD5A74E087301709B02C552C80A2D4E136
:103500004169A80834A1E62C1E9139E3324C3808F1
:103510003029712DACEFA2E4A6EAC6074AAFF42D1C
:10352000718610E617565407371F712E0E1D82E75D
:1035300031A0E006C865E62E837AF7E8CCDA6B06A0
:10354000E870542F3D6570EAEA17F6059D2FBB2FF2
:103550001EA3ECEBB2697F0511921A3083F96BED73
:1035600073E207058D8972304E2DEEEE9B948F0429
:103570008208C330F30273F0B792160484020C3150
:103580007B3EFAF171EF9C03556C4D3192A383F3AE
:1035900088BD2203DC3B87318DF50EF5D70FA802DD
:1035A0003068B93178F79BF647F92C0295E9E33199
:1035B000196C2AF8D48CB1017CB906320016BAF91C
:1035C00086DD350188D221328AB74AFB6FFEB90009
:1035D0008A303532F012DCFCAA023E0085D040323F
:1035E0004FEA6DFE52731900E680CFFA127F000099
:1035F000B0F2433205000000955F4B003E1BE9FA34
:103600003FA426FCB9B14C31235C7C0C53667A0094
:103610005EC734FB4FA772F82C6F702EABE27D189B
:10362000E8B8A400D29CAFFB83F608F5F64ECB2990
:1036300077768E23F6B6C8002BE354FC2B250BF2CD
:10364000A2038B23D03C412D66FEE40071401EFD99
:1036500058A196EFC70CED1B55CC36350279F80012
:10366000A4F703FE5492C3ED075A3C13A0D7203BA6
:1036700029670201D534FDFE04EBA3ECD269CE0923
:10368000A12FC53E296702010364000052B942EC34
:1036900053000000000000400279F8005B8F030136
:1036A0006FB9A3ECD19631F69F2FC53E66FEE400BC
:1036B00029C1FC011331C3ED92A6C3EC9CD7203B7A
:1036C000F6B6C800E065E202271496EFC3F312E4F1
:1036D0004FCC3635E8B8A40046AAAB0377710AF29E
:1036E000D4FC74DCC93C412D53667A004FD250049F
:1036F000342308F567B134D66F768E23955F4B007F
:103700002E85CB0484BC71F814918FD1A2E27D1870
:1037100052731900C90B1705FDAA25FC684EB3CEDC
:10372000195C7C0CAF8CE6FF1B7F3005EF80FFFF40
:10373000510DBCCDFCFFFFFF6CA0B4FFC3E4160528
:10374000C25BD903484EB3CEDEA383F3AE9985FFA7
:10375000A338CB04B2588D07D5908FD1561D82E780
:1037600019475BFF2F6350047E09F70A0BB134D66B
:103770008A8971DC0B4937FFD61CAB03D6DAF40D0E
:103780005FFC74DC31C3BED29B011BFF90BFE10222
:10379000A95E69103AF312E4AC33C9CAFF8607FF89
:1037A0005D08FC01AD6D3C12FAA5C3EC6128DFC4D5
:1037B000D898FDFE2CCB0201FD145C132F9631F638
:1037C00060D03AC1D898FDFEFE9BFFFFAF46BD1307
:1037D000AEFFFFFF010000C0FF8607FFA670FCFEE2
:1037E00092465C133069CE0962D03AC19B011BFF3F
:1037F000D83E03FEEECE3C126F593C136528DFC461
:103800000B4937FF219A1DFDDAEB69103E0CED1BC9
:10381000B233C9CA19475BFFBB5554FC8A8EF50DFC
:103820002D038B2338C3BED2AE9985FFB22DAFFBDB
:10383000CDDCF70A9A4ECB29928971DC6CA0B4FFDB
:10384000D37A34FB7D438E07ED6E702E5F1D82E7C9
:10385000AF8CE6FF38F4E8FA0455DA0399B14C313D
:10386000E8A383F37AD1D6FA1ED2FFFFEAF74332F8
:1038700000000000BE8AE3FA560510FE9F040632DF
:10388000ABE94506E9DDFCFA5AFF24FC1DBD4C31CD
:10389000175C7C0C8A8C22FBBF7A43FA30EA193021
:1038A00024069412BA3954FBA81A70F84A80702E74
:1038B00099E27D18006B91FB5D5FAFF63F98542C49
:1038C000285D2B1E7F89D9FB2E9B05F52665CB290C
:1038D00060768E2369E32BFCCCE776F38D27DB261D
:1038E00035E69928B6AD87FC2F1C07F2091E8B23FD
:1038F000B53C412D1906ECFC1AC3B9F06173E31F06
:10390000BC0079312CF557FD661292EF632AED1B4E
:1039100036CC3635D770CAFD13E392EEB307B21733
:10392000C6657138DA5E42FE45AABEEDB4793C1335
:1039300080D7203B8697BEFE327317EDCE7E970E62
:103940008E823E3D9AE83DFF1CDA9EEC578ACE09F6
:10395000802FC53E3218BFFF570856EC5768ED045C
:10396000271BB13FCFE7400069B13DEC712000005B
:10397000E0FFFF3F6717C200561156EC3CD812FB20
:10398000271BB13F7B68410104EC9EEC4DB531F63D
:10399000802FC53E27A1BD01D68D17ED4ABF68F126
:1039A0008F823E3D2A8F350264CDBEED3FC2C3EC0F
:1039B00081D7203BD50AA802560E93EE87314EE8F8
:1039C000C7657138E8F91303634592EF910B13E46F
:1039D00038CC36354B52780352FDB9F0C8BE1CE0E6
:1039E000BE007931981CD403135D07F2D90F75DC42
:1039F000B73C412D82762604BE2E77F39E0125D951
:103A000036E6992801956E047DE705F5E7BE34D6C4
:103A100062768E2347C6AB044DB0AFF65886ABD363
:103A20002A5D2B1E7773DD04726F70F88B988FD12F
:103A30009BE27D181822030591D243FAA728E6CF0E
:103A40002706941243751C055D5925FC8C4FB3CE97
:103A5000195C7C0C872E2905AB6010FEBE01FACDE7
:103A6000ADE94506872E2905E32D00001708BCCDDA
:103A70000100000043751C05ABFAEF0162FBF9CDB4
:103A80005616BAF918220305A700DB03E442B3CEA9
:103A9000EAA383F37773DD044285BC05D115E6CF35
:103AA000DDF96BED47C6AB0459E58F07B77F8FD1C2
:103AB000681D82E701956E04A4A05009C267ABD3CC
:103AC000D9A2D4E182762604D364FA0ADB9A34D6EA
:103AD000A18971DC981CD4033518890C74D824D9B9
:103AE000CC1966D74B527803D2E3F80DF8E174DCB9
:103AF0004CC3BED2E8F91303E73C460FA08C1CE090
:103B000045FF86CED50AA8029BED6D109ED512E426
:103B1000CB33C9CA2A8F3502EE1C6D114EF84DE821
:103B20003B9A8EC727A1BD01BC5541124D86C3ECFF
:103B30008128DFC47B684101CF8CE812338168F1B2
:103B4000737DC1C26717C200E5256113AA7531F6FE
:103B500081D03AC1CFE74000AAF7A913AA9712FB78
:103B6000DAE44EC03218BFFF984EC21390DFFFFF59
:103B7000210000C09AE83DFFABEEA913C527ED0474
:103B8000DAE44EC08697BEFEFD136113B44ACE0937
:103B900081D03AC1DA5E42FE2B72E812B740970E2E
:103BA000727DC1C2D770CAFD9D324112C23D3C1325
:103BB0008028DFC42CF557FDABF16C117ACEB1171C
:103BC0003A9A8EC71906ECFC9EBA6D1070F4EC1B85
:103BD000C933C9CAB6AD87FCAF02460F3941E31FEE
:103BE00043FF86CE69E32BFCEEA2F80D28F08A2372
:103BF0004AC3BED27F89D9FB43D1880C63FEDA2643
:103C0000CB1966D7006B91FB8418FA0A1A41CB29AD
:103C10009F8971DCBA3954FBB44F5009A979542CEF
:103C2000D7A2D4E18A8C22FB8F908F077667702E03
:103C3000661D82E7E9DDFCFA702DBC055AD7193004
:103C4000DAF96BEDBE8AE3FAA4A6DA0375B04C315B
:103C5000E8A383F37AD1D6FA569FEF0143FE0532EB
:103C60005416BAF9430000000000002000000000D4
:083C7000D8C4FF7F0100000031
:103C7800000000000000000000000000000000003C
:103C8800000000000000000000000000000000002C
:103C9800643C000800000000000000000000000074
:103CA800000000000000000000000000000000000C
:103CB80000000000000000000000000000000000FC
:103CC80000000000000000000000000000000000EC
:083CD80011010008ED000008D5
:0400000508000000EF
:00000001FF
